{
    "txid": "b95c5c0990f69e8f35a813fbb5b9cc8465265e85221b8c5bb32ad5be2133dbbe",
    "hash": "b95c5c0990f69e8f35a813fbb5b9cc8465265e85221b8c5bb32ad5be2133dbbe",
    "version": 2,
    "size": 394,
    "vsize": 394,
    "weight": 1576,
    "locktime": 0,
    "vin": [
        {
            "txid": "94758c1bb34a856cfbf9f8865e9ffa7936d51e24716f6badc10165391a07e29b",
            "vout": 4,
            "scriptSig": {
                "asm": "3045022100d952cd269f4b74c811105d367798270bbbe0c521a46d5937e9146cf1b4891a980220692dddceecc9f36915a8b041eaf787d9ac9fafd5fb725d6145f72d794461ce54[ALL] 02f72c7c352baa09a9c22cff36edd67052b2f98df5bf43b077bfdcff14be834f3f",
                "hex": "483045022100d952cd269f4b74c811105d367798270bbbe0c521a46d5937e9146cf1b4891a980220692dddceecc9f36915a8b041eaf787d9ac9fafd5fb725d6145f72d794461ce54012102f72c7c352baa09a9c22cff36edd67052b2f98df5bf43b077bfdcff14be834f3f"
            },
            "sequence": 4294967295,
            "source": 16686962,
            "value": "1927768",
            "scriptPubKey": {
                "asm": "OP_DUP OP_HASH160 00414f52cf4b3c34b516b0022436e6b96d574804 OP_EQUALVERIFY OP_CHECKSIG",
                "hex": "76a91400414f52cf4b3c34b516b0022436e6b96d57480488ac",
                "reqSigs": 1,
                "type": "pubkeyhash",
                "addresses": [
                    "D5ASn4qEgHJkiVzFZCMfa8VkyP1exsoQH8"
                ]
            }
        },
        {
            "txid": "94758c1bb34a856cfbf9f8865e9ffa7936d51e24716f6badc10165391a07e29b",
            "vout": 2,
            "scriptSig": {
                "asm": "30440220092e708c4a4f9df90755b08a113548bfaf5d559e0f5730803b6905b87260a53302206b810e08e1ee4ff7d9167ea000213aad8186752775d5404007155e4131d413ee[ALL] 02f72c7c352baa09a9c22cff36edd67052b2f98df5bf43b077bfdcff14be834f3f",
                "hex": "4730440220092e708c4a4f9df90755b08a113548bfaf5d559e0f5730803b6905b87260a53302206b810e08e1ee4ff7d9167ea000213aad8186752775d5404007155e4131d413ee012102f72c7c352baa09a9c22cff36edd67052b2f98df5bf43b077bfdcff14be834f3f"
            },
            "sequence": 4294967295,
            "source": 16686962,
            "value": "600",
            "scriptPubKey": {
                "asm": "OP_DUP OP_HASH160 00414f52cf4b3c34b516b0022436e6b96d574804 OP_EQUALVERIFY OP_CHECKSIG",
                "hex": "76a91400414f52cf4b3c34b516b0022436e6b96d57480488ac",
                "reqSigs": 1,
                "type": "pubkeyhash",
                "addresses": [
                    "D5ASn4qEgHJkiVzFZCMfa8VkyP1exsoQH8"
                ]
            },
            "assets": [
                {
                    "assetId": "Ua5x4v5LXLbpwua8Jg64KucGcDPGL3k6r4NNRC",
                    "amount": "1000",
                    "decimals": 0,
                    "rules": false
                }
            ]
        }
    ],
    "vout": [
        {
            "value": "600",
            "scriptPubKey": {
                "asm": "OP_DUP OP_HASH160 00414f52cf4b3c34b516b0022436e6b96d574804 OP_EQUALVERIFY OP_CHECKSIG",
                "hex": "76a91400414f52cf4b3c34b516b0022436e6b96d57480488ac",
                "reqSigs": 1,
                "type": "pubkeyhash",
                "addresses": [
                    "D5ASn4qEgHJkiVzFZCMfa8VkyP1exsoQH8"
                ]
            },
            "vout": 0,
            "assets": [
                {
                    "assetId": "Ua5x4v5LXLbpwua8Jg64KucGcDPGL3k6r4NNRC",
                    "amount": "750",
                    "decimals": 0,
                    "rules": false
                }
            ]
        },
        {
            "value": "0",
            "scriptPubKey": {
                "asm": "OP_RETURN 444103250024b11f2191",
                "hex": "6a0a444103250024b11f2191",
                "type": "nulldata"
            },
            "vout": 1
        },
        {
            "value": "1884868",
            "scriptPubKey": {
                "asm": "OP_DUP OP_HASH160 00414f52cf4b3c34b516b0022436e6b96d574804 OP_EQUALVERIFY OP_CHECKSIG",
                "hex": "76a91400414f52cf4b3c34b516b0022436e6b96d57480488ac",
                "reqSigs": 1,
                "type": "pubkeyhash",
                "addresses": [
                    "D5ASn4qEgHJkiVzFZCMfa8VkyP1exsoQH8"
                ]
            },
            "vout": 2
        }
    ],
    "hex": "02000000029be2071a396501c1ad6b6f71241ed53679fa9f5e86f8f9fb6c854ab31b8c7594040000006b483045022100d952cd269f4b74c811105d367798270bbbe0c521a46d5937e9146cf1b4891a980220692dddceecc9f36915a8b041eaf787d9ac9fafd5fb725d6145f72d794461ce54012102f72c7c352baa09a9c22cff36edd67052b2f98df5bf43b077bfdcff14be834f3fffffffff9be2071a396501c1ad6b6f71241ed53679fa9f5e86f8f9fb6c854ab31b8c7594020000006a4730440220092e708c4a4f9df90755b08a113548bfaf5d559e0f5730803b6905b87260a53302206b810e08e1ee4ff7d9167ea000213aad8186752775d5404007155e4131d413ee012102f72c7c352baa09a9c22cff36edd67052b2f98df5bf43b077bfdcff14be834f3fffffffff0358020000000000001976a91400414f52cf4b3c34b516b0022436e6b96d57480488ac00000000000000000c6a0a444103250024b11f2191c4c21c00000000001976a91400414f52cf4b3c34b516b0022436e6b96d57480488ac00000000",
    "blockhash": "45110bb8ba2380cc6ebf8384530562c94ec09dbc1141ee446890022722a84fdc",
    "height": 16686998,
    "time": 1676993992
}